{
	"tutor-25-commit-reveal/contracts/CommitReviev.sol": {
		"CommitReviev": {
			"abi": [
				{
					"inputs": [
						{
							"internalType": "uint256",
							"name": "",
							"type": "uint256"
						}
					],
					"name": "candidates",
					"outputs": [
						{
							"internalType": "address",
							"name": "",
							"type": "address"
						}
					],
					"stateMutability": "view",
					"type": "function"
				},
				{
					"inputs": [
						{
							"internalType": "bytes32",
							"name": "_hashedVoute",
							"type": "bytes32"
						}
					],
					"name": "commitVoute",
					"outputs": [],
					"stateMutability": "nonpayable",
					"type": "function"
				},
				{
					"inputs": [
						{
							"internalType": "address",
							"name": "",
							"type": "address"
						}
					],
					"name": "commits",
					"outputs": [
						{
							"internalType": "bytes32",
							"name": "",
							"type": "bytes32"
						}
					],
					"stateMutability": "view",
					"type": "function"
				},
				{
					"inputs": [
						{
							"internalType": "address",
							"name": "_candidate",
							"type": "address"
						},
						{
							"internalType": "bytes32",
							"name": "_secret",
							"type": "bytes32"
						}
					],
					"name": "revealVote",
					"outputs": [],
					"stateMutability": "nonpayable",
					"type": "function"
				},
				{
					"inputs": [],
					"name": "stopVoating",
					"outputs": [],
					"stateMutability": "nonpayable",
					"type": "function"
				},
				{
					"inputs": [],
					"name": "test",
					"outputs": [
						{
							"internalType": "bytes32",
							"name": "",
							"type": "bytes32"
						}
					],
					"stateMutability": "view",
					"type": "function"
				},
				{
					"inputs": [
						{
							"internalType": "address",
							"name": "",
							"type": "address"
						}
					],
					"name": "votes",
					"outputs": [
						{
							"internalType": "uint256",
							"name": "",
							"type": "uint256"
						}
					],
					"stateMutability": "view",
					"type": "function"
				}
			],
			"devdoc": {
				"kind": "dev",
				"methods": {},
				"version": 1
			},
			"evm": {
				"assembly": "    /* \"tutor-25-commit-reveal/contracts/CommitReviev.sol\":141:1835  contract CommitReviev {... */\n  mstore(0x40, 0x80)\n    /* \"tutor-25-commit-reveal/contracts/CommitReviev.sol\":165:341  address[] public candidates = [... */\n  mload(0x40)\n  dup1\n  0x60\n  add\n  0x40\n  mstore\n  dup1\n    /* \"tutor-25-commit-reveal/contracts/CommitReviev.sol\":201:243  0x8626f6940E2eb28930eFb4CeF49B2d1F2C9C1199 */\n  0x8626f6940e2eb28930efb4cef49b2d1f2c9c1199\n    /* \"tutor-25-commit-reveal/contracts/CommitReviev.sol\":165:341  address[] public candidates = [... */\n  0xffffffffffffffffffffffffffffffffffffffff\n  and\n  0xffffffffffffffffffffffffffffffffffffffff\n  and\n  dup2\n  mstore\n  0x20\n  add\n    /* \"tutor-25-commit-reveal/contracts/CommitReviev.sol\":249:291  0xdD2FD4581271e230360230F9337D5c0430Bf44C0 */\n  0xdd2fd4581271e230360230f9337d5c0430bf44c0\n    /* \"tutor-25-commit-reveal/contracts/CommitReviev.sol\":165:341  address[] public candidates = [... */\n  0xffffffffffffffffffffffffffffffffffffffff\n  and\n  0xffffffffffffffffffffffffffffffffffffffff\n  and\n  dup2\n  mstore\n  0x20\n  add\n    /* \"tutor-25-commit-reveal/contracts/CommitReviev.sol\":297:339  0xbDA5747bFD65F08deb54cb465eB87D40e51B197E */\n  0xbda5747bfd65f08deb54cb465eb87d40e51b197e\n    /* \"tutor-25-commit-reveal/contracts/CommitReviev.sol\":165:341  address[] public candidates = [... */\n  0xffffffffffffffffffffffffffffffffffffffff\n  and\n  0xffffffffffffffffffffffffffffffffffffffff\n  and\n  dup2\n  mstore\n  pop\n  0x00\n  swap1\n  0x03\n  tag_1\n  swap3\n  swap2\n  swap1\n  tag_2\n  jump\t// in\ntag_1:\n  pop\n    /* \"tutor-25-commit-reveal/contracts/CommitReviev.sol\":141:1835  contract CommitReviev {... */\n  callvalue\n  dup1\n  iszero\n  tag_3\n  jumpi\n  0x00\n  dup1\n  revert\ntag_3:\n  pop\n  jump(tag_4)\ntag_2:\n  dup3\n  dup1\n  sload\n  dup3\n  dup3\n  sstore\n  swap1\n  0x00\n  mstore\n  keccak256(0x00, 0x20)\n  swap1\n  dup2\n  add\n  swap3\n  dup3\n  iszero\n  tag_5\n  jumpi\n  swap2\n  0x20\n  mul\n  dup3\n  add\ntag_6:\n  dup3\n  dup2\n  gt\n  iszero\n  tag_7\n  jumpi\n  dup3\n  mload\n  dup3\n  exp(0x0100, 0x00)\n  dup2\n  sload\n  dup2\n  0xffffffffffffffffffffffffffffffffffffffff\n  mul\n  not\n  and\n  swap1\n  dup4\n  0xffffffffffffffffffffffffffffffffffffffff\n  and\n  mul\n  or\n  swap1\n  sstore\n  pop\n  swap2\n  0x20\n  add\n  swap2\n  swap1\n  0x01\n  add\n  swap1\n  jump(tag_6)\ntag_7:\ntag_5:\n  pop\n  swap1\n  pop\n  tag_8\n  swap2\n  swap1\n  tag_9\n  jump\t// in\ntag_8:\n  pop\n  swap1\n  jump\t// out\ntag_9:\ntag_10:\n  dup1\n  dup3\n  gt\n  iszero\n  tag_11\n  jumpi\n  0x00\n  dup2\n  0x00\n  swap1\n  sstore\n  pop\n  0x01\n  add\n  jump(tag_10)\ntag_11:\n  pop\n  swap1\n  jump\t// out\ntag_4:\n  dataSize(sub_0)\n  dup1\n  dataOffset(sub_0)\n  0x00\n  codecopy\n  0x00\n  return\nstop\n\nsub_0: assembly {\n        /* \"tutor-25-commit-reveal/contracts/CommitReviev.sol\":141:1835  contract CommitReviev {... */\n      mstore(0x40, 0x80)\n      callvalue\n      dup1\n      iszero\n      tag_1\n      jumpi\n      0x00\n      dup1\n      revert\n    tag_1:\n      pop\n      jumpi(tag_2, lt(calldatasize, 0x04))\n      shr(0xe0, calldataload(0x00))\n      dup1\n      0x72c9f370\n      gt\n      tag_10\n      jumpi\n      dup1\n      0x72c9f370\n      eq\n      tag_6\n      jumpi\n      dup1\n      0x7b43a8e6\n      eq\n      tag_7\n      jumpi\n      dup1\n      0xd8bff5a5\n      eq\n      tag_8\n      jumpi\n      dup1\n      0xf8a8fd6d\n      eq\n      tag_9\n      jumpi\n      jump(tag_2)\n    tag_10:\n      dup1\n      0x1fe262d2\n      eq\n      tag_3\n      jumpi\n      dup1\n      0x3477ee2e\n      eq\n      tag_4\n      jumpi\n      dup1\n      0x3cc95365\n      eq\n      tag_5\n      jumpi\n    tag_2:\n      0x00\n      dup1\n      revert\n        /* \"tutor-25-commit-reveal/contracts/CommitReviev.sol\":671:1051  function revealVote(address _candidate , bytes32 _secret) external {... */\n    tag_3:\n      tag_11\n      0x04\n      dup1\n      calldatasize\n      sub\n      dup2\n      add\n      swap1\n      tag_12\n      swap2\n      swap1\n      tag_13\n      jump\t// in\n    tag_12:\n      tag_14\n      jump\t// in\n    tag_11:\n      stop\n        /* \"tutor-25-commit-reveal/contracts/CommitReviev.sol\":165:341  address[] public candidates = [... */\n    tag_4:\n      tag_15\n      0x04\n      dup1\n      calldatasize\n      sub\n      dup2\n      add\n      swap1\n      tag_16\n      swap2\n      swap1\n      tag_17\n      jump\t// in\n    tag_16:\n      tag_18\n      jump\t// in\n    tag_15:\n      mload(0x40)\n      tag_19\n      swap2\n      swap1\n      tag_20\n      jump\t// in\n    tag_19:\n      mload(0x40)\n      dup1\n      swap2\n      sub\n      swap1\n      return\n        /* \"tutor-25-commit-reveal/contracts/CommitReviev.sol\":1066:1170  function stopVoating()external {... */\n    tag_5:\n      tag_21\n      tag_22\n      jump\t// in\n    tag_21:\n      stop\n        /* \"tutor-25-commit-reveal/contracts/CommitReviev.sol\":486:669  function commitVoute(bytes32 _hashedVoute) external {... */\n    tag_6:\n      tag_23\n      0x04\n      dup1\n      calldatasize\n      sub\n      dup2\n      add\n      swap1\n      tag_24\n      swap2\n      swap1\n      tag_25\n      jump\t// in\n    tag_24:\n      tag_26\n      jump\t// in\n    tag_23:\n      stop\n        /* \"tutor-25-commit-reveal/contracts/CommitReviev.sol\":344:385  mapping(address => bytes32)public commits */\n    tag_7:\n      tag_27\n      0x04\n      dup1\n      calldatasize\n      sub\n      dup2\n      add\n      swap1\n      tag_28\n      swap2\n      swap1\n      tag_29\n      jump\t// in\n    tag_28:\n      tag_30\n      jump\t// in\n    tag_27:\n      mload(0x40)\n      tag_31\n      swap2\n      swap1\n      tag_32\n      jump\t// in\n    tag_31:\n      mload(0x40)\n      dup1\n      swap2\n      sub\n      swap1\n      return\n        /* \"tutor-25-commit-reveal/contracts/CommitReviev.sol\":387:423  mapping(address => uint)public votes */\n    tag_8:\n      tag_33\n      0x04\n      dup1\n      calldatasize\n      sub\n      dup2\n      add\n      swap1\n      tag_34\n      swap2\n      swap1\n      tag_29\n      jump\t// in\n    tag_34:\n      tag_35\n      jump\t// in\n    tag_33:\n      mload(0x40)\n      tag_36\n      swap2\n      swap1\n      tag_37\n      jump\t// in\n    tag_36:\n      mload(0x40)\n      dup1\n      swap2\n      sub\n      swap1\n      return\n        /* \"tutor-25-commit-reveal/contracts/CommitReviev.sol\":445:464  bytes32 public test */\n    tag_9:\n      tag_38\n      tag_39\n      jump\t// in\n    tag_38:\n      mload(0x40)\n      tag_40\n      swap2\n      swap1\n      tag_32\n      jump\t// in\n    tag_40:\n      mload(0x40)\n      dup1\n      swap2\n      sub\n      swap1\n      return\n        /* \"tutor-25-commit-reveal/contracts/CommitReviev.sol\":671:1051  function revealVote(address _candidate , bytes32 _secret) external {... */\n    tag_14:\n        /* \"tutor-25-commit-reveal/contracts/CommitReviev.sol\":752:765  voatingStoped */\n      0x03\n      0x00\n      swap1\n      sload\n      swap1\n      0x0100\n      exp\n      swap1\n      div\n      0xff\n      and\n        /* \"tutor-25-commit-reveal/contracts/CommitReviev.sol\":744:795  require(voatingStoped, \"Voating should be stopped\") */\n      tag_42\n      jumpi\n      mload(0x40)\n      0x08c379a000000000000000000000000000000000000000000000000000000000\n      dup2\n      mstore\n      0x04\n      add\n      tag_43\n      swap1\n      tag_44\n      jump\t// in\n    tag_43:\n      mload(0x40)\n      dup1\n      swap2\n      sub\n      swap1\n      revert\n    tag_42:\n        /* \"tutor-25-commit-reveal/contracts/CommitReviev.sol\":847:861  bytes32 commit */\n      0x00\n        /* \"tutor-25-commit-reveal/contracts/CommitReviev.sol\":891:901  _candidate */\n      dup3\n        /* \"tutor-25-commit-reveal/contracts/CommitReviev.sol\":902:909  _secret */\n      dup3\n        /* \"tutor-25-commit-reveal/contracts/CommitReviev.sol\":911:921  msg.sender */\n      caller\n        /* \"tutor-25-commit-reveal/contracts/CommitReviev.sol\":874:923  abi.encodePacked(_candidate,_secret, msg.sender ) */\n      add(0x20, mload(0x40))\n      tag_45\n      swap4\n      swap3\n      swap2\n      swap1\n      tag_46\n      jump\t// in\n    tag_45:\n      mload(0x40)\n      0x20\n      dup2\n      dup4\n      sub\n      sub\n      dup2\n      mstore\n      swap1\n      0x40\n      mstore\n        /* \"tutor-25-commit-reveal/contracts/CommitReviev.sol\":864:924  keccak256(abi.encodePacked(_candidate,_secret, msg.sender )) */\n      dup1\n      mload\n      swap1\n      0x20\n      add\n      keccak256\n        /* \"tutor-25-commit-reveal/contracts/CommitReviev.sol\":847:924  bytes32 commit = keccak256(abi.encodePacked(_candidate,_secret, msg.sender )) */\n      swap1\n      pop\n        /* \"tutor-25-commit-reveal/contracts/CommitReviev.sol\":937:943  commit */\n      dup1\n        /* \"tutor-25-commit-reveal/contracts/CommitReviev.sol\":930:934  test */\n      0x04\n        /* \"tutor-25-commit-reveal/contracts/CommitReviev.sol\":930:943  test = commit */\n      dup2\n      swap1\n      sstore\n      pop\n        /* \"tutor-25-commit-reveal/contracts/CommitReviev.sol\":967:974  commits */\n      0x01\n        /* \"tutor-25-commit-reveal/contracts/CommitReviev.sol\":967:986  commits[msg.sender] */\n      0x00\n        /* \"tutor-25-commit-reveal/contracts/CommitReviev.sol\":975:985  msg.sender */\n      caller\n        /* \"tutor-25-commit-reveal/contracts/CommitReviev.sol\":967:986  commits[msg.sender] */\n      0xffffffffffffffffffffffffffffffffffffffff\n      and\n      0xffffffffffffffffffffffffffffffffffffffff\n      and\n      dup2\n      mstore\n      0x20\n      add\n      swap1\n      dup2\n      mstore\n      0x20\n      add\n      0x00\n      keccak256\n      sload\n        /* \"tutor-25-commit-reveal/contracts/CommitReviev.sol\":957:963  commit */\n      dup2\n        /* \"tutor-25-commit-reveal/contracts/CommitReviev.sol\":957:986  commit == commits[msg.sender] */\n      eq\n        /* \"tutor-25-commit-reveal/contracts/CommitReviev.sol\":949:987  require(commit == commits[msg.sender]) */\n      tag_47\n      jumpi\n      0x00\n      dup1\n      revert\n    tag_47:\n        /* \"tutor-25-commit-reveal/contracts/CommitReviev.sol\":1001:1008  commits */\n      0x01\n        /* \"tutor-25-commit-reveal/contracts/CommitReviev.sol\":1001:1020  commits[msg.sender] */\n      0x00\n        /* \"tutor-25-commit-reveal/contracts/CommitReviev.sol\":1009:1019  msg.sender */\n      caller\n        /* \"tutor-25-commit-reveal/contracts/CommitReviev.sol\":1001:1020  commits[msg.sender] */\n      0xffffffffffffffffffffffffffffffffffffffff\n      and\n      0xffffffffffffffffffffffffffffffffffffffff\n      and\n      dup2\n      mstore\n      0x20\n      add\n      swap1\n      dup2\n      mstore\n      0x20\n      add\n      0x00\n      keccak256\n        /* \"tutor-25-commit-reveal/contracts/CommitReviev.sol\":994:1020  delete commits[msg.sender] */\n      0x00\n      swap1\n      sstore\n        /* \"tutor-25-commit-reveal/contracts/CommitReviev.sol\":1047:1048  1 */\n      0x01\n        /* \"tutor-25-commit-reveal/contracts/CommitReviev.sol\":1026:1031  votes */\n      0x02\n        /* \"tutor-25-commit-reveal/contracts/CommitReviev.sol\":1026:1043  votes[_candidate] */\n      0x00\n        /* \"tutor-25-commit-reveal/contracts/CommitReviev.sol\":1032:1042  _candidate */\n      dup6\n        /* \"tutor-25-commit-reveal/contracts/CommitReviev.sol\":1026:1043  votes[_candidate] */\n      0xffffffffffffffffffffffffffffffffffffffff\n      and\n      0xffffffffffffffffffffffffffffffffffffffff\n      and\n      dup2\n      mstore\n      0x20\n      add\n      swap1\n      dup2\n      mstore\n      0x20\n      add\n      0x00\n      keccak256\n      0x00\n        /* \"tutor-25-commit-reveal/contracts/CommitReviev.sol\":1026:1048  votes[_candidate] += 1 */\n      dup3\n      dup3\n      sload\n      tag_48\n      swap2\n      swap1\n      tag_49\n      jump\t// in\n    tag_48:\n      swap3\n      pop\n      pop\n      dup2\n      swap1\n      sstore\n      pop\n        /* \"tutor-25-commit-reveal/contracts/CommitReviev.sol\":738:1051  {... */\n      pop\n        /* \"tutor-25-commit-reveal/contracts/CommitReviev.sol\":671:1051  function revealVote(address _candidate , bytes32 _secret) external {... */\n      pop\n      pop\n      jump\t// out\n        /* \"tutor-25-commit-reveal/contracts/CommitReviev.sol\":165:341  address[] public candidates = [... */\n    tag_18:\n      0x00\n      dup2\n      dup2\n      sload\n      dup2\n      lt\n      tag_50\n      jumpi\n      0x00\n      dup1\n      revert\n    tag_50:\n      swap1\n      0x00\n      mstore\n      keccak256(0x00, 0x20)\n      add\n      0x00\n      swap2\n      pop\n      sload\n      swap1\n      0x0100\n      exp\n      swap1\n      div\n      0xffffffffffffffffffffffffffffffffffffffff\n      and\n      dup2\n      jump\t// out\n        /* \"tutor-25-commit-reveal/contracts/CommitReviev.sol\":1066:1170  function stopVoating()external {... */\n    tag_22:\n        /* \"tutor-25-commit-reveal/contracts/CommitReviev.sol\":1108:1121  voatingStoped */\n      0x03\n      0x00\n      swap1\n      sload\n      swap1\n      0x0100\n      exp\n      swap1\n      div\n      0xff\n      and\n        /* \"tutor-25-commit-reveal/contracts/CommitReviev.sol\":1107:1121  !voatingStoped */\n      iszero\n        /* \"tutor-25-commit-reveal/contracts/CommitReviev.sol\":1099:1145  require(!voatingStoped, \"Voating was stopped\") */\n      tag_53\n      jumpi\n      mload(0x40)\n      0x08c379a000000000000000000000000000000000000000000000000000000000\n      dup2\n      mstore\n      0x04\n      add\n      tag_54\n      swap1\n      tag_55\n      jump\t// in\n    tag_54:\n      mload(0x40)\n      dup1\n      swap2\n      sub\n      swap1\n      revert\n    tag_53:\n        /* \"tutor-25-commit-reveal/contracts/CommitReviev.sol\":1163:1167  true */\n      0x01\n        /* \"tutor-25-commit-reveal/contracts/CommitReviev.sol\":1147:1160  voatingStoped */\n      0x03\n      0x00\n        /* \"tutor-25-commit-reveal/contracts/CommitReviev.sol\":1147:1167  voatingStoped = true */\n      0x0100\n      exp\n      dup2\n      sload\n      dup2\n      0xff\n      mul\n      not\n      and\n      swap1\n      dup4\n      iszero\n      iszero\n      mul\n      or\n      swap1\n      sstore\n      pop\n        /* \"tutor-25-commit-reveal/contracts/CommitReviev.sol\":1066:1170  function stopVoating()external {... */\n      jump\t// out\n        /* \"tutor-25-commit-reveal/contracts/CommitReviev.sol\":486:669  function commitVoute(bytes32 _hashedVoute) external {... */\n    tag_26:\n        /* \"tutor-25-commit-reveal/contracts/CommitReviev.sol\":549:562  voatingStoped */\n      0x03\n      0x00\n      swap1\n      sload\n      swap1\n      0x0100\n      exp\n      swap1\n      div\n      0xff\n      and\n        /* \"tutor-25-commit-reveal/contracts/CommitReviev.sol\":548:562  !voatingStoped */\n      iszero\n        /* \"tutor-25-commit-reveal/contracts/CommitReviev.sol\":540:586  require(!voatingStoped, \"Voating was stopped\") */\n      tag_57\n      jumpi\n      mload(0x40)\n      0x08c379a000000000000000000000000000000000000000000000000000000000\n      dup2\n      mstore\n      0x04\n      add\n      tag_58\n      swap1\n      tag_55\n      jump\t// in\n    tag_58:\n      mload(0x40)\n      dup1\n      swap2\n      sub\n      swap1\n      revert\n    tag_57:\n        /* \"tutor-25-commit-reveal/contracts/CommitReviev.sol\":627:628  0 */\n      0x00\n        /* \"tutor-25-commit-reveal/contracts/CommitReviev.sol\":619:629  bytes32(0) */\n      dup1\n      shl\n        /* \"tutor-25-commit-reveal/contracts/CommitReviev.sol\":596:603  commits */\n      0x01\n        /* \"tutor-25-commit-reveal/contracts/CommitReviev.sol\":596:615  commits[msg.sender] */\n      0x00\n        /* \"tutor-25-commit-reveal/contracts/CommitReviev.sol\":604:614  msg.sender */\n      caller\n        /* \"tutor-25-commit-reveal/contracts/CommitReviev.sol\":596:615  commits[msg.sender] */\n      0xffffffffffffffffffffffffffffffffffffffff\n      and\n      0xffffffffffffffffffffffffffffffffffffffff\n      and\n      dup2\n      mstore\n      0x20\n      add\n      swap1\n      dup2\n      mstore\n      0x20\n      add\n      0x00\n      keccak256\n      sload\n        /* \"tutor-25-commit-reveal/contracts/CommitReviev.sol\":596:629  commits[msg.sender] == bytes32(0) */\n      eq\n        /* \"tutor-25-commit-reveal/contracts/CommitReviev.sol\":588:630  require(commits[msg.sender] == bytes32(0)) */\n      tag_59\n      jumpi\n      0x00\n      dup1\n      revert\n    tag_59:\n        /* \"tutor-25-commit-reveal/contracts/CommitReviev.sol\":654:666  _hashedVoute */\n      dup1\n        /* \"tutor-25-commit-reveal/contracts/CommitReviev.sol\":632:639  commits */\n      0x01\n        /* \"tutor-25-commit-reveal/contracts/CommitReviev.sol\":632:651  commits[msg.sender] */\n      0x00\n        /* \"tutor-25-commit-reveal/contracts/CommitReviev.sol\":640:650  msg.sender */\n      caller\n        /* \"tutor-25-commit-reveal/contracts/CommitReviev.sol\":632:651  commits[msg.sender] */\n      0xffffffffffffffffffffffffffffffffffffffff\n      and\n      0xffffffffffffffffffffffffffffffffffffffff\n      and\n      dup2\n      mstore\n      0x20\n      add\n      swap1\n      dup2\n      mstore\n      0x20\n      add\n      0x00\n      keccak256\n        /* \"tutor-25-commit-reveal/contracts/CommitReviev.sol\":632:666  commits[msg.sender] = _hashedVoute */\n      dup2\n      swap1\n      sstore\n      pop\n        /* \"tutor-25-commit-reveal/contracts/CommitReviev.sol\":486:669  function commitVoute(bytes32 _hashedVoute) external {... */\n      pop\n      jump\t// out\n        /* \"tutor-25-commit-reveal/contracts/CommitReviev.sol\":344:385  mapping(address => bytes32)public commits */\n    tag_30:\n      mstore(0x20, 0x01)\n      dup1\n      0x00\n      mstore\n      keccak256(0x00, 0x40)\n      0x00\n      swap2\n      pop\n      swap1\n      pop\n      sload\n      dup2\n      jump\t// out\n        /* \"tutor-25-commit-reveal/contracts/CommitReviev.sol\":387:423  mapping(address => uint)public votes */\n    tag_35:\n      mstore(0x20, 0x02)\n      dup1\n      0x00\n      mstore\n      keccak256(0x00, 0x40)\n      0x00\n      swap2\n      pop\n      swap1\n      pop\n      sload\n      dup2\n      jump\t// out\n        /* \"tutor-25-commit-reveal/contracts/CommitReviev.sol\":445:464  bytes32 public test */\n    tag_39:\n      sload(0x04)\n      dup2\n      jump\t// out\n        /* \"#utility.yul\":88:205   */\n    tag_61:\n        /* \"#utility.yul\":197:198   */\n      0x00\n        /* \"#utility.yul\":194:195   */\n      dup1\n        /* \"#utility.yul\":187:199   */\n      revert\n        /* \"#utility.yul\":334:460   */\n    tag_63:\n        /* \"#utility.yul\":371:378   */\n      0x00\n        /* \"#utility.yul\":411:453   */\n      0xffffffffffffffffffffffffffffffffffffffff\n        /* \"#utility.yul\":404:409   */\n      dup3\n        /* \"#utility.yul\":400:454   */\n      and\n        /* \"#utility.yul\":389:454   */\n      swap1\n      pop\n        /* \"#utility.yul\":334:460   */\n      swap2\n      swap1\n      pop\n      jump\t// out\n        /* \"#utility.yul\":466:562   */\n    tag_64:\n        /* \"#utility.yul\":503:510   */\n      0x00\n        /* \"#utility.yul\":532:556   */\n      tag_94\n        /* \"#utility.yul\":550:555   */\n      dup3\n        /* \"#utility.yul\":532:556   */\n      tag_63\n      jump\t// in\n    tag_94:\n        /* \"#utility.yul\":521:556   */\n      swap1\n      pop\n        /* \"#utility.yul\":466:562   */\n      swap2\n      swap1\n      pop\n      jump\t// out\n        /* \"#utility.yul\":568:690   */\n    tag_65:\n        /* \"#utility.yul\":641:665   */\n      tag_96\n        /* \"#utility.yul\":659:664   */\n      dup2\n        /* \"#utility.yul\":641:665   */\n      tag_64\n      jump\t// in\n    tag_96:\n        /* \"#utility.yul\":634:639   */\n      dup2\n        /* \"#utility.yul\":631:666   */\n      eq\n        /* \"#utility.yul\":621:684   */\n      tag_97\n      jumpi\n        /* \"#utility.yul\":680:681   */\n      0x00\n        /* \"#utility.yul\":677:678   */\n      dup1\n        /* \"#utility.yul\":670:682   */\n      revert\n        /* \"#utility.yul\":621:684   */\n    tag_97:\n        /* \"#utility.yul\":568:690   */\n      pop\n      jump\t// out\n        /* \"#utility.yul\":696:835   */\n    tag_66:\n        /* \"#utility.yul\":742:747   */\n      0x00\n        /* \"#utility.yul\":780:786   */\n      dup2\n        /* \"#utility.yul\":767:787   */\n      calldataload\n        /* \"#utility.yul\":758:787   */\n      swap1\n      pop\n        /* \"#utility.yul\":796:829   */\n      tag_99\n        /* \"#utility.yul\":823:828   */\n      dup2\n        /* \"#utility.yul\":796:829   */\n      tag_65\n      jump\t// in\n    tag_99:\n        /* \"#utility.yul\":696:835   */\n      swap3\n      swap2\n      pop\n      pop\n      jump\t// out\n        /* \"#utility.yul\":841:918   */\n    tag_67:\n        /* \"#utility.yul\":878:885   */\n      0x00\n        /* \"#utility.yul\":907:912   */\n      dup2\n        /* \"#utility.yul\":896:912   */\n      swap1\n      pop\n        /* \"#utility.yul\":841:918   */\n      swap2\n      swap1\n      pop\n      jump\t// out\n        /* \"#utility.yul\":924:1046   */\n    tag_68:\n        /* \"#utility.yul\":997:1021   */\n      tag_102\n        /* \"#utility.yul\":1015:1020   */\n      dup2\n        /* \"#utility.yul\":997:1021   */\n      tag_67\n      jump\t// in\n    tag_102:\n        /* \"#utility.yul\":990:995   */\n      dup2\n        /* \"#utility.yul\":987:1022   */\n      eq\n        /* \"#utility.yul\":977:1040   */\n      tag_103\n      jumpi\n        /* \"#utility.yul\":1036:1037   */\n      0x00\n        /* \"#utility.yul\":1033:1034   */\n      dup1\n        /* \"#utility.yul\":1026:1038   */\n      revert\n        /* \"#utility.yul\":977:1040   */\n    tag_103:\n        /* \"#utility.yul\":924:1046   */\n      pop\n      jump\t// out\n        /* \"#utility.yul\":1052:1191   */\n    tag_69:\n        /* \"#utility.yul\":1098:1103   */\n      0x00\n        /* \"#utility.yul\":1136:1142   */\n      dup2\n        /* \"#utility.yul\":1123:1143   */\n      calldataload\n        /* \"#utility.yul\":1114:1143   */\n      swap1\n      pop\n        /* \"#utility.yul\":1152:1185   */\n      tag_105\n        /* \"#utility.yul\":1179:1184   */\n      dup2\n        /* \"#utility.yul\":1152:1185   */\n      tag_68\n      jump\t// in\n    tag_105:\n        /* \"#utility.yul\":1052:1191   */\n      swap3\n      swap2\n      pop\n      pop\n      jump\t// out\n        /* \"#utility.yul\":1197:1671   */\n    tag_13:\n        /* \"#utility.yul\":1265:1271   */\n      0x00\n        /* \"#utility.yul\":1273:1279   */\n      dup1\n        /* \"#utility.yul\":1322:1324   */\n      0x40\n        /* \"#utility.yul\":1310:1319   */\n      dup4\n        /* \"#utility.yul\":1301:1308   */\n      dup6\n        /* \"#utility.yul\":1297:1320   */\n      sub\n        /* \"#utility.yul\":1293:1325   */\n      slt\n        /* \"#utility.yul\":1290:1409   */\n      iszero\n      tag_107\n      jumpi\n        /* \"#utility.yul\":1328:1407   */\n      tag_108\n      tag_61\n      jump\t// in\n    tag_108:\n        /* \"#utility.yul\":1290:1409   */\n    tag_107:\n        /* \"#utility.yul\":1448:1449   */\n      0x00\n        /* \"#utility.yul\":1473:1526   */\n      tag_109\n        /* \"#utility.yul\":1518:1525   */\n      dup6\n        /* \"#utility.yul\":1509:1515   */\n      dup3\n        /* \"#utility.yul\":1498:1507   */\n      dup7\n        /* \"#utility.yul\":1494:1516   */\n      add\n        /* \"#utility.yul\":1473:1526   */\n      tag_66\n      jump\t// in\n    tag_109:\n        /* \"#utility.yul\":1463:1526   */\n      swap3\n      pop\n        /* \"#utility.yul\":1419:1536   */\n      pop\n        /* \"#utility.yul\":1575:1577   */\n      0x20\n        /* \"#utility.yul\":1601:1654   */\n      tag_110\n        /* \"#utility.yul\":1646:1653   */\n      dup6\n        /* \"#utility.yul\":1637:1643   */\n      dup3\n        /* \"#utility.yul\":1626:1635   */\n      dup7\n        /* \"#utility.yul\":1622:1644   */\n      add\n        /* \"#utility.yul\":1601:1654   */\n      tag_69\n      jump\t// in\n    tag_110:\n        /* \"#utility.yul\":1591:1654   */\n      swap2\n      pop\n        /* \"#utility.yul\":1546:1664   */\n      pop\n        /* \"#utility.yul\":1197:1671   */\n      swap3\n      pop\n      swap3\n      swap1\n      pop\n      jump\t// out\n        /* \"#utility.yul\":1677:1754   */\n    tag_70:\n        /* \"#utility.yul\":1714:1721   */\n      0x00\n        /* \"#utility.yul\":1743:1748   */\n      dup2\n        /* \"#utility.yul\":1732:1748   */\n      swap1\n      pop\n        /* \"#utility.yul\":1677:1754   */\n      swap2\n      swap1\n      pop\n      jump\t// out\n        /* \"#utility.yul\":1760:1882   */\n    tag_71:\n        /* \"#utility.yul\":1833:1857   */\n      tag_113\n        /* \"#utility.yul\":1851:1856   */\n      dup2\n        /* \"#utility.yul\":1833:1857   */\n      tag_70\n      jump\t// in\n    tag_113:\n        /* \"#utility.yul\":1826:1831   */\n      dup2\n        /* \"#utility.yul\":1823:1858   */\n      eq\n        /* \"#utility.yul\":1813:1876   */\n      tag_114\n      jumpi\n        /* \"#utility.yul\":1872:1873   */\n      0x00\n        /* \"#utility.yul\":1869:1870   */\n      dup1\n        /* \"#utility.yul\":1862:1874   */\n      revert\n        /* \"#utility.yul\":1813:1876   */\n    tag_114:\n        /* \"#utility.yul\":1760:1882   */\n      pop\n      jump\t// out\n        /* \"#utility.yul\":1888:2027   */\n    tag_72:\n        /* \"#utility.yul\":1934:1939   */\n      0x00\n        /* \"#utility.yul\":1972:1978   */\n      dup2\n        /* \"#utility.yul\":1959:1979   */\n      calldataload\n        /* \"#utility.yul\":1950:1979   */\n      swap1\n      pop\n        /* \"#utility.yul\":1988:2021   */\n      tag_116\n        /* \"#utility.yul\":2015:2020   */\n      dup2\n        /* \"#utility.yul\":1988:2021   */\n      tag_71\n      jump\t// in\n    tag_116:\n        /* \"#utility.yul\":1888:2027   */\n      swap3\n      swap2\n      pop\n      pop\n      jump\t// out\n        /* \"#utility.yul\":2033:2362   */\n    tag_17:\n        /* \"#utility.yul\":2092:2098   */\n      0x00\n        /* \"#utility.yul\":2141:2143   */\n      0x20\n        /* \"#utility.yul\":2129:2138   */\n      dup3\n        /* \"#utility.yul\":2120:2127   */\n      dup5\n        /* \"#utility.yul\":2116:2139   */\n      sub\n        /* \"#utility.yul\":2112:2144   */\n      slt\n        /* \"#utility.yul\":2109:2228   */\n      iszero\n      tag_118\n      jumpi\n        /* \"#utility.yul\":2147:2226   */\n      tag_119\n      tag_61\n      jump\t// in\n    tag_119:\n        /* \"#utility.yul\":2109:2228   */\n    tag_118:\n        /* \"#utility.yul\":2267:2268   */\n      0x00\n        /* \"#utility.yul\":2292:2345   */\n      tag_120\n        /* \"#utility.yul\":2337:2344   */\n      dup5\n        /* \"#utility.yul\":2328:2334   */\n      dup3\n        /* \"#utility.yul\":2317:2326   */\n      dup6\n        /* \"#utility.yul\":2313:2335   */\n      add\n        /* \"#utility.yul\":2292:2345   */\n      tag_72\n      jump\t// in\n    tag_120:\n        /* \"#utility.yul\":2282:2345   */\n      swap2\n      pop\n        /* \"#utility.yul\":2238:2355   */\n      pop\n        /* \"#utility.yul\":2033:2362   */\n      swap3\n      swap2\n      pop\n      pop\n      jump\t// out\n        /* \"#utility.yul\":2368:2486   */\n    tag_73:\n        /* \"#utility.yul\":2455:2479   */\n      tag_122\n        /* \"#utility.yul\":2473:2478   */\n      dup2\n        /* \"#utility.yul\":2455:2479   */\n      tag_64\n      jump\t// in\n    tag_122:\n        /* \"#utility.yul\":2450:2453   */\n      dup3\n        /* \"#utility.yul\":2443:2480   */\n      mstore\n        /* \"#utility.yul\":2368:2486   */\n      pop\n      pop\n      jump\t// out\n        /* \"#utility.yul\":2492:2714   */\n    tag_20:\n        /* \"#utility.yul\":2585:2589   */\n      0x00\n        /* \"#utility.yul\":2623:2625   */\n      0x20\n        /* \"#utility.yul\":2612:2621   */\n      dup3\n        /* \"#utility.yul\":2608:2626   */\n      add\n        /* \"#utility.yul\":2600:2626   */\n      swap1\n      pop\n        /* \"#utility.yul\":2636:2707   */\n      tag_124\n        /* \"#utility.yul\":2704:2705   */\n      0x00\n        /* \"#utility.yul\":2693:2702   */\n      dup4\n        /* \"#utility.yul\":2689:2706   */\n      add\n        /* \"#utility.yul\":2680:2686   */\n      dup5\n        /* \"#utility.yul\":2636:2707   */\n      tag_73\n      jump\t// in\n    tag_124:\n        /* \"#utility.yul\":2492:2714   */\n      swap3\n      swap2\n      pop\n      pop\n      jump\t// out\n        /* \"#utility.yul\":2720:3049   */\n    tag_25:\n        /* \"#utility.yul\":2779:2785   */\n      0x00\n        /* \"#utility.yul\":2828:2830   */\n      0x20\n        /* \"#utility.yul\":2816:2825   */\n      dup3\n        /* \"#utility.yul\":2807:2814   */\n      dup5\n        /* \"#utility.yul\":2803:2826   */\n      sub\n        /* \"#utility.yul\":2799:2831   */\n      slt\n        /* \"#utility.yul\":2796:2915   */\n      iszero\n      tag_126\n      jumpi\n        /* \"#utility.yul\":2834:2913   */\n      tag_127\n      tag_61\n      jump\t// in\n    tag_127:\n        /* \"#utility.yul\":2796:2915   */\n    tag_126:\n        /* \"#utility.yul\":2954:2955   */\n      0x00\n        /* \"#utility.yul\":2979:3032   */\n      tag_128\n        /* \"#utility.yul\":3024:3031   */\n      dup5\n        /* \"#utility.yul\":3015:3021   */\n      dup3\n        /* \"#utility.yul\":3004:3013   */\n      dup6\n        /* \"#utility.yul\":3000:3022   */\n      add\n        /* \"#utility.yul\":2979:3032   */\n      tag_69\n      jump\t// in\n    tag_128:\n        /* \"#utility.yul\":2969:3032   */\n      swap2\n      pop\n        /* \"#utility.yul\":2925:3042   */\n      pop\n        /* \"#utility.yul\":2720:3049   */\n      swap3\n      swap2\n      pop\n      pop\n      jump\t// out\n        /* \"#utility.yul\":3055:3384   */\n    tag_29:\n        /* \"#utility.yul\":3114:3120   */\n      0x00\n        /* \"#utility.yul\":3163:3165   */\n      0x20\n        /* \"#utility.yul\":3151:3160   */\n      dup3\n        /* \"#utility.yul\":3142:3149   */\n      dup5\n        /* \"#utility.yul\":3138:3161   */\n      sub\n        /* \"#utility.yul\":3134:3166   */\n      slt\n        /* \"#utility.yul\":3131:3250   */\n      iszero\n      tag_130\n      jumpi\n        /* \"#utility.yul\":3169:3248   */\n      tag_131\n      tag_61\n      jump\t// in\n    tag_131:\n        /* \"#utility.yul\":3131:3250   */\n    tag_130:\n        /* \"#utility.yul\":3289:3290   */\n      0x00\n        /* \"#utility.yul\":3314:3367   */\n      tag_132\n        /* \"#utility.yul\":3359:3366   */\n      dup5\n        /* \"#utility.yul\":3350:3356   */\n      dup3\n        /* \"#utility.yul\":3339:3348   */\n      dup6\n        /* \"#utility.yul\":3335:3357   */\n      add\n        /* \"#utility.yul\":3314:3367   */\n      tag_66\n      jump\t// in\n    tag_132:\n        /* \"#utility.yul\":3304:3367   */\n      swap2\n      pop\n        /* \"#utility.yul\":3260:3377   */\n      pop\n        /* \"#utility.yul\":3055:3384   */\n      swap3\n      swap2\n      pop\n      pop\n      jump\t// out\n        /* \"#utility.yul\":3390:3508   */\n    tag_74:\n        /* \"#utility.yul\":3477:3501   */\n      tag_134\n        /* \"#utility.yul\":3495:3500   */\n      dup2\n        /* \"#utility.yul\":3477:3501   */\n      tag_67\n      jump\t// in\n    tag_134:\n        /* \"#utility.yul\":3472:3475   */\n      dup3\n        /* \"#utility.yul\":3465:3502   */\n      mstore\n        /* \"#utility.yul\":3390:3508   */\n      pop\n      pop\n      jump\t// out\n        /* \"#utility.yul\":3514:3736   */\n    tag_32:\n        /* \"#utility.yul\":3607:3611   */\n      0x00\n        /* \"#utility.yul\":3645:3647   */\n      0x20\n        /* \"#utility.yul\":3634:3643   */\n      dup3\n        /* \"#utility.yul\":3630:3648   */\n      add\n        /* \"#utility.yul\":3622:3648   */\n      swap1\n      pop\n        /* \"#utility.yul\":3658:3729   */\n      tag_136\n        /* \"#utility.yul\":3726:3727   */\n      0x00\n        /* \"#utility.yul\":3715:3724   */\n      dup4\n        /* \"#utility.yul\":3711:3728   */\n      add\n        /* \"#utility.yul\":3702:3708   */\n      dup5\n        /* \"#utility.yul\":3658:3729   */\n      tag_74\n      jump\t// in\n    tag_136:\n        /* \"#utility.yul\":3514:3736   */\n      swap3\n      swap2\n      pop\n      pop\n      jump\t// out\n        /* \"#utility.yul\":3742:3860   */\n    tag_75:\n        /* \"#utility.yul\":3829:3853   */\n      tag_138\n        /* \"#utility.yul\":3847:3852   */\n      dup2\n        /* \"#utility.yul\":3829:3853   */\n      tag_70\n      jump\t// in\n    tag_138:\n        /* \"#utility.yul\":3824:3827   */\n      dup3\n        /* \"#utility.yul\":3817:3854   */\n      mstore\n        /* \"#utility.yul\":3742:3860   */\n      pop\n      pop\n      jump\t// out\n        /* \"#utility.yul\":3866:4088   */\n    tag_37:\n        /* \"#utility.yul\":3959:3963   */\n      0x00\n        /* \"#utility.yul\":3997:3999   */\n      0x20\n        /* \"#utility.yul\":3986:3995   */\n      dup3\n        /* \"#utility.yul\":3982:4000   */\n      add\n        /* \"#utility.yul\":3974:4000   */\n      swap1\n      pop\n        /* \"#utility.yul\":4010:4081   */\n      tag_140\n        /* \"#utility.yul\":4078:4079   */\n      0x00\n        /* \"#utility.yul\":4067:4076   */\n      dup4\n        /* \"#utility.yul\":4063:4080   */\n      add\n        /* \"#utility.yul\":4054:4060   */\n      dup5\n        /* \"#utility.yul\":4010:4081   */\n      tag_75\n      jump\t// in\n    tag_140:\n        /* \"#utility.yul\":3866:4088   */\n      swap3\n      swap2\n      pop\n      pop\n      jump\t// out\n        /* \"#utility.yul\":4094:4263   */\n    tag_76:\n        /* \"#utility.yul\":4178:4189   */\n      0x00\n        /* \"#utility.yul\":4212:4218   */\n      dup3\n        /* \"#utility.yul\":4207:4210   */\n      dup3\n        /* \"#utility.yul\":4200:4219   */\n      mstore\n        /* \"#utility.yul\":4252:4256   */\n      0x20\n        /* \"#utility.yul\":4247:4250   */\n      dup3\n        /* \"#utility.yul\":4243:4257   */\n      add\n        /* \"#utility.yul\":4228:4257   */\n      swap1\n      pop\n        /* \"#utility.yul\":4094:4263   */\n      swap3\n      swap2\n      pop\n      pop\n      jump\t// out\n        /* \"#utility.yul\":4269:4444   */\n    tag_77:\n        /* \"#utility.yul\":4409:4436   */\n      0x566f6174696e672073686f756c642062652073746f7070656400000000000000\n        /* \"#utility.yul\":4405:4406   */\n      0x00\n        /* \"#utility.yul\":4397:4403   */\n      dup3\n        /* \"#utility.yul\":4393:4407   */\n      add\n        /* \"#utility.yul\":4386:4437   */\n      mstore\n        /* \"#utility.yul\":4269:4444   */\n      pop\n      jump\t// out\n        /* \"#utility.yul\":4450:4816   */\n    tag_78:\n        /* \"#utility.yul\":4592:4595   */\n      0x00\n        /* \"#utility.yul\":4613:4680   */\n      tag_144\n        /* \"#utility.yul\":4677:4679   */\n      0x19\n        /* \"#utility.yul\":4672:4675   */\n      dup4\n        /* \"#utility.yul\":4613:4680   */\n      tag_76\n      jump\t// in\n    tag_144:\n        /* \"#utility.yul\":4606:4680   */\n      swap2\n      pop\n        /* \"#utility.yul\":4689:4782   */\n      tag_145\n        /* \"#utility.yul\":4778:4781   */\n      dup3\n        /* \"#utility.yul\":4689:4782   */\n      tag_77\n      jump\t// in\n    tag_145:\n        /* \"#utility.yul\":4807:4809   */\n      0x20\n        /* \"#utility.yul\":4802:4805   */\n      dup3\n        /* \"#utility.yul\":4798:4810   */\n      add\n        /* \"#utility.yul\":4791:4810   */\n      swap1\n      pop\n        /* \"#utility.yul\":4450:4816   */\n      swap2\n      swap1\n      pop\n      jump\t// out\n        /* \"#utility.yul\":4822:5241   */\n    tag_44:\n        /* \"#utility.yul\":4988:4992   */\n      0x00\n        /* \"#utility.yul\":5026:5028   */\n      0x20\n        /* \"#utility.yul\":5015:5024   */\n      dup3\n        /* \"#utility.yul\":5011:5029   */\n      add\n        /* \"#utility.yul\":5003:5029   */\n      swap1\n      pop\n        /* \"#utility.yul\":5075:5084   */\n      dup2\n        /* \"#utility.yul\":5069:5073   */\n      dup2\n        /* \"#utility.yul\":5065:5085   */\n      sub\n        /* \"#utility.yul\":5061:5062   */\n      0x00\n        /* \"#utility.yul\":5050:5059   */\n      dup4\n        /* \"#utility.yul\":5046:5063   */\n      add\n        /* \"#utility.yul\":5039:5086   */\n      mstore\n        /* \"#utility.yul\":5103:5234   */\n      tag_147\n        /* \"#utility.yul\":5229:5233   */\n      dup2\n        /* \"#utility.yul\":5103:5234   */\n      tag_78\n      jump\t// in\n    tag_147:\n        /* \"#utility.yul\":5095:5234   */\n      swap1\n      pop\n        /* \"#utility.yul\":4822:5241   */\n      swap2\n      swap1\n      pop\n      jump\t// out\n        /* \"#utility.yul\":5247:5341   */\n    tag_79:\n        /* \"#utility.yul\":5280:5288   */\n      0x00\n        /* \"#utility.yul\":5328:5333   */\n      dup2\n        /* \"#utility.yul\":5324:5326   */\n      0x60\n        /* \"#utility.yul\":5320:5334   */\n      shl\n        /* \"#utility.yul\":5299:5334   */\n      swap1\n      pop\n        /* \"#utility.yul\":5247:5341   */\n      swap2\n      swap1\n      pop\n      jump\t// out\n        /* \"#utility.yul\":5347:5441   */\n    tag_80:\n        /* \"#utility.yul\":5386:5393   */\n      0x00\n        /* \"#utility.yul\":5415:5435   */\n      tag_150\n        /* \"#utility.yul\":5429:5434   */\n      dup3\n        /* \"#utility.yul\":5415:5435   */\n      tag_79\n      jump\t// in\n    tag_150:\n        /* \"#utility.yul\":5404:5435   */\n      swap1\n      pop\n        /* \"#utility.yul\":5347:5441   */\n      swap2\n      swap1\n      pop\n      jump\t// out\n        /* \"#utility.yul\":5447:5547   */\n    tag_81:\n        /* \"#utility.yul\":5486:5493   */\n      0x00\n        /* \"#utility.yul\":5515:5541   */\n      tag_152\n        /* \"#utility.yul\":5535:5540   */\n      dup3\n        /* \"#utility.yul\":5515:5541   */\n      tag_80\n      jump\t// in\n    tag_152:\n        /* \"#utility.yul\":5504:5541   */\n      swap1\n      pop\n        /* \"#utility.yul\":5447:5547   */\n      swap2\n      swap1\n      pop\n      jump\t// out\n        /* \"#utility.yul\":5553:5710   */\n    tag_82:\n        /* \"#utility.yul\":5658:5703   */\n      tag_154\n        /* \"#utility.yul\":5678:5702   */\n      tag_155\n        /* \"#utility.yul\":5696:5701   */\n      dup3\n        /* \"#utility.yul\":5678:5702   */\n      tag_64\n      jump\t// in\n    tag_155:\n        /* \"#utility.yul\":5658:5703   */\n      tag_81\n      jump\t// in\n    tag_154:\n        /* \"#utility.yul\":5653:5656   */\n      dup3\n        /* \"#utility.yul\":5646:5704   */\n      mstore\n        /* \"#utility.yul\":5553:5710   */\n      pop\n      pop\n      jump\t// out\n        /* \"#utility.yul\":5716:5795   */\n    tag_83:\n        /* \"#utility.yul\":5755:5762   */\n      0x00\n        /* \"#utility.yul\":5784:5789   */\n      dup2\n        /* \"#utility.yul\":5773:5789   */\n      swap1\n      pop\n        /* \"#utility.yul\":5716:5795   */\n      swap2\n      swap1\n      pop\n      jump\t// out\n        /* \"#utility.yul\":5801:5958   */\n    tag_84:\n        /* \"#utility.yul\":5906:5951   */\n      tag_158\n        /* \"#utility.yul\":5926:5950   */\n      tag_159\n        /* \"#utility.yul\":5944:5949   */\n      dup3\n        /* \"#utility.yul\":5926:5950   */\n      tag_67\n      jump\t// in\n    tag_159:\n        /* \"#utility.yul\":5906:5951   */\n      tag_83\n      jump\t// in\n    tag_158:\n        /* \"#utility.yul\":5901:5904   */\n      dup3\n        /* \"#utility.yul\":5894:5952   */\n      mstore\n        /* \"#utility.yul\":5801:5958   */\n      pop\n      pop\n      jump\t// out\n        /* \"#utility.yul\":5964:6502   */\n    tag_46:\n        /* \"#utility.yul\":6132:6135   */\n      0x00\n        /* \"#utility.yul\":6147:6222   */\n      tag_161\n        /* \"#utility.yul\":6218:6221   */\n      dup3\n        /* \"#utility.yul\":6209:6215   */\n      dup7\n        /* \"#utility.yul\":6147:6222   */\n      tag_82\n      jump\t// in\n    tag_161:\n        /* \"#utility.yul\":6247:6249   */\n      0x14\n        /* \"#utility.yul\":6242:6245   */\n      dup3\n        /* \"#utility.yul\":6238:6250   */\n      add\n        /* \"#utility.yul\":6231:6250   */\n      swap2\n      pop\n        /* \"#utility.yul\":6260:6335   */\n      tag_162\n        /* \"#utility.yul\":6331:6334   */\n      dup3\n        /* \"#utility.yul\":6322:6328   */\n      dup6\n        /* \"#utility.yul\":6260:6335   */\n      tag_84\n      jump\t// in\n    tag_162:\n        /* \"#utility.yul\":6360:6362   */\n      0x20\n        /* \"#utility.yul\":6355:6358   */\n      dup3\n        /* \"#utility.yul\":6351:6363   */\n      add\n        /* \"#utility.yul\":6344:6363   */\n      swap2\n      pop\n        /* \"#utility.yul\":6373:6448   */\n      tag_163\n        /* \"#utility.yul\":6444:6447   */\n      dup3\n        /* \"#utility.yul\":6435:6441   */\n      dup5\n        /* \"#utility.yul\":6373:6448   */\n      tag_82\n      jump\t// in\n    tag_163:\n        /* \"#utility.yul\":6473:6475   */\n      0x14\n        /* \"#utility.yul\":6468:6471   */\n      dup3\n        /* \"#utility.yul\":6464:6476   */\n      add\n        /* \"#utility.yul\":6457:6476   */\n      swap2\n      pop\n        /* \"#utility.yul\":6493:6496   */\n      dup2\n        /* \"#utility.yul\":6486:6496   */\n      swap1\n      pop\n        /* \"#utility.yul\":5964:6502   */\n      swap5\n      swap4\n      pop\n      pop\n      pop\n      pop\n      jump\t// out\n        /* \"#utility.yul\":6508:6688   */\n    tag_85:\n        /* \"#utility.yul\":6556:6633   */\n      0x4e487b7100000000000000000000000000000000000000000000000000000000\n        /* \"#utility.yul\":6553:6554   */\n      0x00\n        /* \"#utility.yul\":6546:6634   */\n      mstore\n        /* \"#utility.yul\":6653:6657   */\n      0x11\n        /* \"#utility.yul\":6650:6651   */\n      0x04\n        /* \"#utility.yul\":6643:6658   */\n      mstore\n        /* \"#utility.yul\":6677:6681   */\n      0x24\n        /* \"#utility.yul\":6674:6675   */\n      0x00\n        /* \"#utility.yul\":6667:6682   */\n      revert\n        /* \"#utility.yul\":6694:6885   */\n    tag_49:\n        /* \"#utility.yul\":6734:6737   */\n      0x00\n        /* \"#utility.yul\":6753:6773   */\n      tag_166\n        /* \"#utility.yul\":6771:6772   */\n      dup3\n        /* \"#utility.yul\":6753:6773   */\n      tag_70\n      jump\t// in\n    tag_166:\n        /* \"#utility.yul\":6748:6773   */\n      swap2\n      pop\n        /* \"#utility.yul\":6787:6807   */\n      tag_167\n        /* \"#utility.yul\":6805:6806   */\n      dup4\n        /* \"#utility.yul\":6787:6807   */\n      tag_70\n      jump\t// in\n    tag_167:\n        /* \"#utility.yul\":6782:6807   */\n      swap3\n      pop\n        /* \"#utility.yul\":6830:6831   */\n      dup3\n        /* \"#utility.yul\":6827:6828   */\n      dup3\n        /* \"#utility.yul\":6823:6832   */\n      add\n        /* \"#utility.yul\":6816:6832   */\n      swap1\n      pop\n        /* \"#utility.yul\":6851:6854   */\n      dup1\n        /* \"#utility.yul\":6848:6849   */\n      dup3\n        /* \"#utility.yul\":6845:6855   */\n      gt\n        /* \"#utility.yul\":6842:6878   */\n      iszero\n      tag_168\n      jumpi\n        /* \"#utility.yul\":6858:6876   */\n      tag_169\n      tag_85\n      jump\t// in\n    tag_169:\n        /* \"#utility.yul\":6842:6878   */\n    tag_168:\n        /* \"#utility.yul\":6694:6885   */\n      swap3\n      swap2\n      pop\n      pop\n      jump\t// out\n        /* \"#utility.yul\":6891:7060   */\n    tag_86:\n        /* \"#utility.yul\":7031:7052   */\n      0x566f6174696e67207761732073746f7070656400000000000000000000000000\n        /* \"#utility.yul\":7027:7028   */\n      0x00\n        /* \"#utility.yul\":7019:7025   */\n      dup3\n        /* \"#utility.yul\":7015:7029   */\n      add\n        /* \"#utility.yul\":7008:7053   */\n      mstore\n        /* \"#utility.yul\":6891:7060   */\n      pop\n      jump\t// out\n        /* \"#utility.yul\":7066:7432   */\n    tag_87:\n        /* \"#utility.yul\":7208:7211   */\n      0x00\n        /* \"#utility.yul\":7229:7296   */\n      tag_172\n        /* \"#utility.yul\":7293:7295   */\n      0x13\n        /* \"#utility.yul\":7288:7291   */\n      dup4\n        /* \"#utility.yul\":7229:7296   */\n      tag_76\n      jump\t// in\n    tag_172:\n        /* \"#utility.yul\":7222:7296   */\n      swap2\n      pop\n        /* \"#utility.yul\":7305:7398   */\n      tag_173\n        /* \"#utility.yul\":7394:7397   */\n      dup3\n        /* \"#utility.yul\":7305:7398   */\n      tag_86\n      jump\t// in\n    tag_173:\n        /* \"#utility.yul\":7423:7425   */\n      0x20\n        /* \"#utility.yul\":7418:7421   */\n      dup3\n        /* \"#utility.yul\":7414:7426   */\n      add\n        /* \"#utility.yul\":7407:7426   */\n      swap1\n      pop\n        /* \"#utility.yul\":7066:7432   */\n      swap2\n      swap1\n      pop\n      jump\t// out\n        /* \"#utility.yul\":7438:7857   */\n    tag_55:\n        /* \"#utility.yul\":7604:7608   */\n      0x00\n        /* \"#utility.yul\":7642:7644   */\n      0x20\n        /* \"#utility.yul\":7631:7640   */\n      dup3\n        /* \"#utility.yul\":7627:7645   */\n      add\n        /* \"#utility.yul\":7619:7645   */\n      swap1\n      pop\n        /* \"#utility.yul\":7691:7700   */\n      dup2\n        /* \"#utility.yul\":7685:7689   */\n      dup2\n        /* \"#utility.yul\":7681:7701   */\n      sub\n        /* \"#utility.yul\":7677:7678   */\n      0x00\n        /* \"#utility.yul\":7666:7675   */\n      dup4\n        /* \"#utility.yul\":7662:7679   */\n      add\n        /* \"#utility.yul\":7655:7702   */\n      mstore\n        /* \"#utility.yul\":7719:7850   */\n      tag_175\n        /* \"#utility.yul\":7845:7849   */\n      dup2\n        /* \"#utility.yul\":7719:7850   */\n      tag_87\n      jump\t// in\n    tag_175:\n        /* \"#utility.yul\":7711:7850   */\n      swap1\n      pop\n        /* \"#utility.yul\":7438:7857   */\n      swap2\n      swap1\n      pop\n      jump\t// out\n\n    auxdata: 0xa2646970667358221220e12fe153c86c3404bf3a04eb466b846e3c3baaaeaf960f6424c5161f2b0f6e5d64736f6c63430008190033\n}\n",
				"bytecode": {
					"linkReferences": {},
					"object": "60806040526040518060600160405280738626f6940e2eb28930efb4cef49b2d1f2c9c119973ffffffffffffffffffffffffffffffffffffffff1673ffffffffffffffffffffffffffffffffffffffff16815260200173dd2fd4581271e230360230f9337d5c0430bf44c073ffffffffffffffffffffffffffffffffffffffff1673ffffffffffffffffffffffffffffffffffffffff16815260200173bda5747bfd65f08deb54cb465eb87d40e51b197e73ffffffffffffffffffffffffffffffffffffffff1673ffffffffffffffffffffffffffffffffffffffff168152505f9060036100ee929190610100565b503480156100fa575f80fd5b506101a2565b828054828255905f5260205f20908101928215610176579160200282015b82811115610175578251825f6101000a81548173ffffffffffffffffffffffffffffffffffffffff021916908373ffffffffffffffffffffffffffffffffffffffff1602179055509160200191906001019061011e565b5b5090506101839190610187565b5090565b5b8082111561019e575f815f905550600101610188565b5090565b610898806101af5f395ff3fe608060405234801561000f575f80fd5b506004361061007b575f3560e01c806372c9f3701161005957806372c9f370146100d55780637b43a8e6146100f1578063d8bff5a514610121578063f8a8fd6d146101515761007b565b80631fe262d21461007f5780633477ee2e1461009b5780633cc95365146100cb575b5f80fd5b61009960048036038101906100949190610517565b61016f565b005b6100b560048036038101906100b09190610588565b6102d3565b6040516100c291906105c2565b60405180910390f35b6100d361030d565b005b6100ef60048036038101906100ea91906105db565b610378565b005b61010b60048036038101906101069190610606565b610456565b6040516101189190610640565b60405180910390f35b61013b60048036038101906101369190610606565b61046b565b6040516101489190610668565b60405180910390f35b610159610480565b6040516101669190610640565b60405180910390f35b60035f9054906101000a900460ff166101bd576040517f08c379a00000000000000000000000000000000000000000000000000000000081526004016101b4906106db565b60405180910390fd5b5f8282336040516020016101d39392919061075e565b6040516020818303038152906040528051906020012090508060048190555060015f3373ffffffffffffffffffffffffffffffffffffffff1673ffffffffffffffffffffffffffffffffffffffff1681526020019081526020015f2054811461023a575f80fd5b60015f3373ffffffffffffffffffffffffffffffffffffffff1673ffffffffffffffffffffffffffffffffffffffff1681526020019081526020015f205f9055600160025f8573ffffffffffffffffffffffffffffffffffffffff1673ffffffffffffffffffffffffffffffffffffffff1681526020019081526020015f205f8282546102c791906107c7565b92505081905550505050565b5f81815481106102e1575f80fd5b905f5260205f20015f915054906101000a900473ffffffffffffffffffffffffffffffffffffffff1681565b60035f9054906101000a900460ff161561035c576040517f08c379a000000000000000000000000000000000000000000000000000000000815260040161035390610844565b60405180910390fd5b600160035f6101000a81548160ff021916908315150217905550565b60035f9054906101000a900460ff16156103c7576040517f08c379a00000000000000000000000000000000000000000000000000000000081526004016103be90610844565b60405180910390fd5b5f801b60015f3373ffffffffffffffffffffffffffffffffffffffff1673ffffffffffffffffffffffffffffffffffffffff1681526020019081526020015f205414610411575f80fd5b8060015f3373ffffffffffffffffffffffffffffffffffffffff1673ffffffffffffffffffffffffffffffffffffffff1681526020019081526020015f208190555050565b6001602052805f5260405f205f915090505481565b6002602052805f5260405f205f915090505481565b60045481565b5f80fd5b5f73ffffffffffffffffffffffffffffffffffffffff82169050919050565b5f6104b38261048a565b9050919050565b6104c3816104a9565b81146104cd575f80fd5b50565b5f813590506104de816104ba565b92915050565b5f819050919050565b6104f6816104e4565b8114610500575f80fd5b50565b5f81359050610511816104ed565b92915050565b5f806040838503121561052d5761052c610486565b5b5f61053a858286016104d0565b925050602061054b85828601610503565b9150509250929050565b5f819050919050565b61056781610555565b8114610571575f80fd5b50565b5f813590506105828161055e565b92915050565b5f6020828403121561059d5761059c610486565b5b5f6105aa84828501610574565b91505092915050565b6105bc816104a9565b82525050565b5f6020820190506105d55f8301846105b3565b92915050565b5f602082840312156105f0576105ef610486565b5b5f6105fd84828501610503565b91505092915050565b5f6020828403121561061b5761061a610486565b5b5f610628848285016104d0565b91505092915050565b61063a816104e4565b82525050565b5f6020820190506106535f830184610631565b92915050565b61066281610555565b82525050565b5f60208201905061067b5f830184610659565b92915050565b5f82825260208201905092915050565b7f566f6174696e672073686f756c642062652073746f70706564000000000000005f82015250565b5f6106c5601983610681565b91506106d082610691565b602082019050919050565b5f6020820190508181035f8301526106f2816106b9565b9050919050565b5f8160601b9050919050565b5f61070f826106f9565b9050919050565b5f61072082610705565b9050919050565b610738610733826104a9565b610716565b82525050565b5f819050919050565b610758610753826104e4565b61073e565b82525050565b5f6107698286610727565b6014820191506107798285610747565b6020820191506107898284610727565b601482019150819050949350505050565b7f4e487b71000000000000000000000000000000000000000000000000000000005f52601160045260245ffd5b5f6107d182610555565b91506107dc83610555565b92508282019050808211156107f4576107f361079a565b5b92915050565b7f566f6174696e67207761732073746f70706564000000000000000000000000005f82015250565b5f61082e601383610681565b9150610839826107fa565b602082019050919050565b5f6020820190508181035f83015261085b81610822565b905091905056fea2646970667358221220e12fe153c86c3404bf3a04eb466b846e3c3baaaeaf960f6424c5161f2b0f6e5d64736f6c63430008190033",
					"opcodes": "PUSH1 0x80 PUSH1 0x40 MSTORE PUSH1 0x40 MLOAD DUP1 PUSH1 0x60 ADD PUSH1 0x40 MSTORE DUP1 PUSH20 0x8626F6940E2EB28930EFB4CEF49B2D1F2C9C1199 PUSH20 0xFFFFFFFFFFFFFFFFFFFFFFFFFFFFFFFFFFFFFFFF AND PUSH20 0xFFFFFFFFFFFFFFFFFFFFFFFFFFFFFFFFFFFFFFFF AND DUP2 MSTORE PUSH1 0x20 ADD PUSH20 0xDD2FD4581271E230360230F9337D5C0430BF44C0 PUSH20 0xFFFFFFFFFFFFFFFFFFFFFFFFFFFFFFFFFFFFFFFF AND PUSH20 0xFFFFFFFFFFFFFFFFFFFFFFFFFFFFFFFFFFFFFFFF AND DUP2 MSTORE PUSH1 0x20 ADD PUSH20 0xBDA5747BFD65F08DEB54CB465EB87D40E51B197E PUSH20 0xFFFFFFFFFFFFFFFFFFFFFFFFFFFFFFFFFFFFFFFF AND PUSH20 0xFFFFFFFFFFFFFFFFFFFFFFFFFFFFFFFFFFFFFFFF AND DUP2 MSTORE POP PUSH0 SWAP1 PUSH1 0x3 PUSH2 0xEE SWAP3 SWAP2 SWAP1 PUSH2 0x100 JUMP JUMPDEST POP CALLVALUE DUP1 ISZERO PUSH2 0xFA JUMPI PUSH0 DUP1 REVERT JUMPDEST POP PUSH2 0x1A2 JUMP JUMPDEST DUP3 DUP1 SLOAD DUP3 DUP3 SSTORE SWAP1 PUSH0 MSTORE PUSH1 0x20 PUSH0 KECCAK256 SWAP1 DUP2 ADD SWAP3 DUP3 ISZERO PUSH2 0x176 JUMPI SWAP2 PUSH1 0x20 MUL DUP3 ADD JUMPDEST DUP3 DUP2 GT ISZERO PUSH2 0x175 JUMPI DUP3 MLOAD DUP3 PUSH0 PUSH2 0x100 EXP DUP2 SLOAD DUP2 PUSH20 0xFFFFFFFFFFFFFFFFFFFFFFFFFFFFFFFFFFFFFFFF MUL NOT AND SWAP1 DUP4 PUSH20 0xFFFFFFFFFFFFFFFFFFFFFFFFFFFFFFFFFFFFFFFF AND MUL OR SWAP1 SSTORE POP SWAP2 PUSH1 0x20 ADD SWAP2 SWAP1 PUSH1 0x1 ADD SWAP1 PUSH2 0x11E JUMP JUMPDEST JUMPDEST POP SWAP1 POP PUSH2 0x183 SWAP2 SWAP1 PUSH2 0x187 JUMP JUMPDEST POP SWAP1 JUMP JUMPDEST JUMPDEST DUP1 DUP3 GT ISZERO PUSH2 0x19E JUMPI PUSH0 DUP2 PUSH0 SWAP1 SSTORE POP PUSH1 0x1 ADD PUSH2 0x188 JUMP JUMPDEST POP SWAP1 JUMP JUMPDEST PUSH2 0x898 DUP1 PUSH2 0x1AF PUSH0 CODECOPY PUSH0 RETURN INVALID PUSH1 0x80 PUSH1 0x40 MSTORE CALLVALUE DUP1 ISZERO PUSH2 0xF JUMPI PUSH0 DUP1 REVERT JUMPDEST POP PUSH1 0x4 CALLDATASIZE LT PUSH2 0x7B JUMPI PUSH0 CALLDATALOAD PUSH1 0xE0 SHR DUP1 PUSH4 0x72C9F370 GT PUSH2 0x59 JUMPI DUP1 PUSH4 0x72C9F370 EQ PUSH2 0xD5 JUMPI DUP1 PUSH4 0x7B43A8E6 EQ PUSH2 0xF1 JUMPI DUP1 PUSH4 0xD8BFF5A5 EQ PUSH2 0x121 JUMPI DUP1 PUSH4 0xF8A8FD6D EQ PUSH2 0x151 JUMPI PUSH2 0x7B JUMP JUMPDEST DUP1 PUSH4 0x1FE262D2 EQ PUSH2 0x7F JUMPI DUP1 PUSH4 0x3477EE2E EQ PUSH2 0x9B JUMPI DUP1 PUSH4 0x3CC95365 EQ PUSH2 0xCB JUMPI JUMPDEST PUSH0 DUP1 REVERT JUMPDEST PUSH2 0x99 PUSH1 0x4 DUP1 CALLDATASIZE SUB DUP2 ADD SWAP1 PUSH2 0x94 SWAP2 SWAP1 PUSH2 0x517 JUMP JUMPDEST PUSH2 0x16F JUMP JUMPDEST STOP JUMPDEST PUSH2 0xB5 PUSH1 0x4 DUP1 CALLDATASIZE SUB DUP2 ADD SWAP1 PUSH2 0xB0 SWAP2 SWAP1 PUSH2 0x588 JUMP JUMPDEST PUSH2 0x2D3 JUMP JUMPDEST PUSH1 0x40 MLOAD PUSH2 0xC2 SWAP2 SWAP1 PUSH2 0x5C2 JUMP JUMPDEST PUSH1 0x40 MLOAD DUP1 SWAP2 SUB SWAP1 RETURN JUMPDEST PUSH2 0xD3 PUSH2 0x30D JUMP JUMPDEST STOP JUMPDEST PUSH2 0xEF PUSH1 0x4 DUP1 CALLDATASIZE SUB DUP2 ADD SWAP1 PUSH2 0xEA SWAP2 SWAP1 PUSH2 0x5DB JUMP JUMPDEST PUSH2 0x378 JUMP JUMPDEST STOP JUMPDEST PUSH2 0x10B PUSH1 0x4 DUP1 CALLDATASIZE SUB DUP2 ADD SWAP1 PUSH2 0x106 SWAP2 SWAP1 PUSH2 0x606 JUMP JUMPDEST PUSH2 0x456 JUMP JUMPDEST PUSH1 0x40 MLOAD PUSH2 0x118 SWAP2 SWAP1 PUSH2 0x640 JUMP JUMPDEST PUSH1 0x40 MLOAD DUP1 SWAP2 SUB SWAP1 RETURN JUMPDEST PUSH2 0x13B PUSH1 0x4 DUP1 CALLDATASIZE SUB DUP2 ADD SWAP1 PUSH2 0x136 SWAP2 SWAP1 PUSH2 0x606 JUMP JUMPDEST PUSH2 0x46B JUMP JUMPDEST PUSH1 0x40 MLOAD PUSH2 0x148 SWAP2 SWAP1 PUSH2 0x668 JUMP JUMPDEST PUSH1 0x40 MLOAD DUP1 SWAP2 SUB SWAP1 RETURN JUMPDEST PUSH2 0x159 PUSH2 0x480 JUMP JUMPDEST PUSH1 0x40 MLOAD PUSH2 0x166 SWAP2 SWAP1 PUSH2 0x640 JUMP JUMPDEST PUSH1 0x40 MLOAD DUP1 SWAP2 SUB SWAP1 RETURN JUMPDEST PUSH1 0x3 PUSH0 SWAP1 SLOAD SWAP1 PUSH2 0x100 EXP SWAP1 DIV PUSH1 0xFF AND PUSH2 0x1BD JUMPI PUSH1 0x40 MLOAD PUSH32 0x8C379A000000000000000000000000000000000000000000000000000000000 DUP2 MSTORE PUSH1 0x4 ADD PUSH2 0x1B4 SWAP1 PUSH2 0x6DB JUMP JUMPDEST PUSH1 0x40 MLOAD DUP1 SWAP2 SUB SWAP1 REVERT JUMPDEST PUSH0 DUP3 DUP3 CALLER PUSH1 0x40 MLOAD PUSH1 0x20 ADD PUSH2 0x1D3 SWAP4 SWAP3 SWAP2 SWAP1 PUSH2 0x75E JUMP JUMPDEST PUSH1 0x40 MLOAD PUSH1 0x20 DUP2 DUP4 SUB SUB DUP2 MSTORE SWAP1 PUSH1 0x40 MSTORE DUP1 MLOAD SWAP1 PUSH1 0x20 ADD KECCAK256 SWAP1 POP DUP1 PUSH1 0x4 DUP2 SWAP1 SSTORE POP PUSH1 0x1 PUSH0 CALLER PUSH20 0xFFFFFFFFFFFFFFFFFFFFFFFFFFFFFFFFFFFFFFFF AND PUSH20 0xFFFFFFFFFFFFFFFFFFFFFFFFFFFFFFFFFFFFFFFF AND DUP2 MSTORE PUSH1 0x20 ADD SWAP1 DUP2 MSTORE PUSH1 0x20 ADD PUSH0 KECCAK256 SLOAD DUP2 EQ PUSH2 0x23A JUMPI PUSH0 DUP1 REVERT JUMPDEST PUSH1 0x1 PUSH0 CALLER PUSH20 0xFFFFFFFFFFFFFFFFFFFFFFFFFFFFFFFFFFFFFFFF AND PUSH20 0xFFFFFFFFFFFFFFFFFFFFFFFFFFFFFFFFFFFFFFFF AND DUP2 MSTORE PUSH1 0x20 ADD SWAP1 DUP2 MSTORE PUSH1 0x20 ADD PUSH0 KECCAK256 PUSH0 SWAP1 SSTORE PUSH1 0x1 PUSH1 0x2 PUSH0 DUP6 PUSH20 0xFFFFFFFFFFFFFFFFFFFFFFFFFFFFFFFFFFFFFFFF AND PUSH20 0xFFFFFFFFFFFFFFFFFFFFFFFFFFFFFFFFFFFFFFFF AND DUP2 MSTORE PUSH1 0x20 ADD SWAP1 DUP2 MSTORE PUSH1 0x20 ADD PUSH0 KECCAK256 PUSH0 DUP3 DUP3 SLOAD PUSH2 0x2C7 SWAP2 SWAP1 PUSH2 0x7C7 JUMP JUMPDEST SWAP3 POP POP DUP2 SWAP1 SSTORE POP POP POP POP JUMP JUMPDEST PUSH0 DUP2 DUP2 SLOAD DUP2 LT PUSH2 0x2E1 JUMPI PUSH0 DUP1 REVERT JUMPDEST SWAP1 PUSH0 MSTORE PUSH1 0x20 PUSH0 KECCAK256 ADD PUSH0 SWAP2 POP SLOAD SWAP1 PUSH2 0x100 EXP SWAP1 DIV PUSH20 0xFFFFFFFFFFFFFFFFFFFFFFFFFFFFFFFFFFFFFFFF AND DUP2 JUMP JUMPDEST PUSH1 0x3 PUSH0 SWAP1 SLOAD SWAP1 PUSH2 0x100 EXP SWAP1 DIV PUSH1 0xFF AND ISZERO PUSH2 0x35C JUMPI PUSH1 0x40 MLOAD PUSH32 0x8C379A000000000000000000000000000000000000000000000000000000000 DUP2 MSTORE PUSH1 0x4 ADD PUSH2 0x353 SWAP1 PUSH2 0x844 JUMP JUMPDEST PUSH1 0x40 MLOAD DUP1 SWAP2 SUB SWAP1 REVERT JUMPDEST PUSH1 0x1 PUSH1 0x3 PUSH0 PUSH2 0x100 EXP DUP2 SLOAD DUP2 PUSH1 0xFF MUL NOT AND SWAP1 DUP4 ISZERO ISZERO MUL OR SWAP1 SSTORE POP JUMP JUMPDEST PUSH1 0x3 PUSH0 SWAP1 SLOAD SWAP1 PUSH2 0x100 EXP SWAP1 DIV PUSH1 0xFF AND ISZERO PUSH2 0x3C7 JUMPI PUSH1 0x40 MLOAD PUSH32 0x8C379A000000000000000000000000000000000000000000000000000000000 DUP2 MSTORE PUSH1 0x4 ADD PUSH2 0x3BE SWAP1 PUSH2 0x844 JUMP JUMPDEST PUSH1 0x40 MLOAD DUP1 SWAP2 SUB SWAP1 REVERT JUMPDEST PUSH0 DUP1 SHL PUSH1 0x1 PUSH0 CALLER PUSH20 0xFFFFFFFFFFFFFFFFFFFFFFFFFFFFFFFFFFFFFFFF AND PUSH20 0xFFFFFFFFFFFFFFFFFFFFFFFFFFFFFFFFFFFFFFFF AND DUP2 MSTORE PUSH1 0x20 ADD SWAP1 DUP2 MSTORE PUSH1 0x20 ADD PUSH0 KECCAK256 SLOAD EQ PUSH2 0x411 JUMPI PUSH0 DUP1 REVERT JUMPDEST DUP1 PUSH1 0x1 PUSH0 CALLER PUSH20 0xFFFFFFFFFFFFFFFFFFFFFFFFFFFFFFFFFFFFFFFF AND PUSH20 0xFFFFFFFFFFFFFFFFFFFFFFFFFFFFFFFFFFFFFFFF AND DUP2 MSTORE PUSH1 0x20 ADD SWAP1 DUP2 MSTORE PUSH1 0x20 ADD PUSH0 KECCAK256 DUP2 SWAP1 SSTORE POP POP JUMP JUMPDEST PUSH1 0x1 PUSH1 0x20 MSTORE DUP1 PUSH0 MSTORE PUSH1 0x40 PUSH0 KECCAK256 PUSH0 SWAP2 POP SWAP1 POP SLOAD DUP2 JUMP JUMPDEST PUSH1 0x2 PUSH1 0x20 MSTORE DUP1 PUSH0 MSTORE PUSH1 0x40 PUSH0 KECCAK256 PUSH0 SWAP2 POP SWAP1 POP SLOAD DUP2 JUMP JUMPDEST PUSH1 0x4 SLOAD DUP2 JUMP JUMPDEST PUSH0 DUP1 REVERT JUMPDEST PUSH0 PUSH20 0xFFFFFFFFFFFFFFFFFFFFFFFFFFFFFFFFFFFFFFFF DUP3 AND SWAP1 POP SWAP2 SWAP1 POP JUMP JUMPDEST PUSH0 PUSH2 0x4B3 DUP3 PUSH2 0x48A JUMP JUMPDEST SWAP1 POP SWAP2 SWAP1 POP JUMP JUMPDEST PUSH2 0x4C3 DUP2 PUSH2 0x4A9 JUMP JUMPDEST DUP2 EQ PUSH2 0x4CD JUMPI PUSH0 DUP1 REVERT JUMPDEST POP JUMP JUMPDEST PUSH0 DUP2 CALLDATALOAD SWAP1 POP PUSH2 0x4DE DUP2 PUSH2 0x4BA JUMP JUMPDEST SWAP3 SWAP2 POP POP JUMP JUMPDEST PUSH0 DUP2 SWAP1 POP SWAP2 SWAP1 POP JUMP JUMPDEST PUSH2 0x4F6 DUP2 PUSH2 0x4E4 JUMP JUMPDEST DUP2 EQ PUSH2 0x500 JUMPI PUSH0 DUP1 REVERT JUMPDEST POP JUMP JUMPDEST PUSH0 DUP2 CALLDATALOAD SWAP1 POP PUSH2 0x511 DUP2 PUSH2 0x4ED JUMP JUMPDEST SWAP3 SWAP2 POP POP JUMP JUMPDEST PUSH0 DUP1 PUSH1 0x40 DUP4 DUP6 SUB SLT ISZERO PUSH2 0x52D JUMPI PUSH2 0x52C PUSH2 0x486 JUMP JUMPDEST JUMPDEST PUSH0 PUSH2 0x53A DUP6 DUP3 DUP7 ADD PUSH2 0x4D0 JUMP JUMPDEST SWAP3 POP POP PUSH1 0x20 PUSH2 0x54B DUP6 DUP3 DUP7 ADD PUSH2 0x503 JUMP JUMPDEST SWAP2 POP POP SWAP3 POP SWAP3 SWAP1 POP JUMP JUMPDEST PUSH0 DUP2 SWAP1 POP SWAP2 SWAP1 POP JUMP JUMPDEST PUSH2 0x567 DUP2 PUSH2 0x555 JUMP JUMPDEST DUP2 EQ PUSH2 0x571 JUMPI PUSH0 DUP1 REVERT JUMPDEST POP JUMP JUMPDEST PUSH0 DUP2 CALLDATALOAD SWAP1 POP PUSH2 0x582 DUP2 PUSH2 0x55E JUMP JUMPDEST SWAP3 SWAP2 POP POP JUMP JUMPDEST PUSH0 PUSH1 0x20 DUP3 DUP5 SUB SLT ISZERO PUSH2 0x59D JUMPI PUSH2 0x59C PUSH2 0x486 JUMP JUMPDEST JUMPDEST PUSH0 PUSH2 0x5AA DUP5 DUP3 DUP6 ADD PUSH2 0x574 JUMP JUMPDEST SWAP2 POP POP SWAP3 SWAP2 POP POP JUMP JUMPDEST PUSH2 0x5BC DUP2 PUSH2 0x4A9 JUMP JUMPDEST DUP3 MSTORE POP POP JUMP JUMPDEST PUSH0 PUSH1 0x20 DUP3 ADD SWAP1 POP PUSH2 0x5D5 PUSH0 DUP4 ADD DUP5 PUSH2 0x5B3 JUMP JUMPDEST SWAP3 SWAP2 POP POP JUMP JUMPDEST PUSH0 PUSH1 0x20 DUP3 DUP5 SUB SLT ISZERO PUSH2 0x5F0 JUMPI PUSH2 0x5EF PUSH2 0x486 JUMP JUMPDEST JUMPDEST PUSH0 PUSH2 0x5FD DUP5 DUP3 DUP6 ADD PUSH2 0x503 JUMP JUMPDEST SWAP2 POP POP SWAP3 SWAP2 POP POP JUMP JUMPDEST PUSH0 PUSH1 0x20 DUP3 DUP5 SUB SLT ISZERO PUSH2 0x61B JUMPI PUSH2 0x61A PUSH2 0x486 JUMP JUMPDEST JUMPDEST PUSH0 PUSH2 0x628 DUP5 DUP3 DUP6 ADD PUSH2 0x4D0 JUMP JUMPDEST SWAP2 POP POP SWAP3 SWAP2 POP POP JUMP JUMPDEST PUSH2 0x63A DUP2 PUSH2 0x4E4 JUMP JUMPDEST DUP3 MSTORE POP POP JUMP JUMPDEST PUSH0 PUSH1 0x20 DUP3 ADD SWAP1 POP PUSH2 0x653 PUSH0 DUP4 ADD DUP5 PUSH2 0x631 JUMP JUMPDEST SWAP3 SWAP2 POP POP JUMP JUMPDEST PUSH2 0x662 DUP2 PUSH2 0x555 JUMP JUMPDEST DUP3 MSTORE POP POP JUMP JUMPDEST PUSH0 PUSH1 0x20 DUP3 ADD SWAP1 POP PUSH2 0x67B PUSH0 DUP4 ADD DUP5 PUSH2 0x659 JUMP JUMPDEST SWAP3 SWAP2 POP POP JUMP JUMPDEST PUSH0 DUP3 DUP3 MSTORE PUSH1 0x20 DUP3 ADD SWAP1 POP SWAP3 SWAP2 POP POP JUMP JUMPDEST PUSH32 0x566F6174696E672073686F756C642062652073746F7070656400000000000000 PUSH0 DUP3 ADD MSTORE POP JUMP JUMPDEST PUSH0 PUSH2 0x6C5 PUSH1 0x19 DUP4 PUSH2 0x681 JUMP JUMPDEST SWAP2 POP PUSH2 0x6D0 DUP3 PUSH2 0x691 JUMP JUMPDEST PUSH1 0x20 DUP3 ADD SWAP1 POP SWAP2 SWAP1 POP JUMP JUMPDEST PUSH0 PUSH1 0x20 DUP3 ADD SWAP1 POP DUP2 DUP2 SUB PUSH0 DUP4 ADD MSTORE PUSH2 0x6F2 DUP2 PUSH2 0x6B9 JUMP JUMPDEST SWAP1 POP SWAP2 SWAP1 POP JUMP JUMPDEST PUSH0 DUP2 PUSH1 0x60 SHL SWAP1 POP SWAP2 SWAP1 POP JUMP JUMPDEST PUSH0 PUSH2 0x70F DUP3 PUSH2 0x6F9 JUMP JUMPDEST SWAP1 POP SWAP2 SWAP1 POP JUMP JUMPDEST PUSH0 PUSH2 0x720 DUP3 PUSH2 0x705 JUMP JUMPDEST SWAP1 POP SWAP2 SWAP1 POP JUMP JUMPDEST PUSH2 0x738 PUSH2 0x733 DUP3 PUSH2 0x4A9 JUMP JUMPDEST PUSH2 0x716 JUMP JUMPDEST DUP3 MSTORE POP POP JUMP JUMPDEST PUSH0 DUP2 SWAP1 POP SWAP2 SWAP1 POP JUMP JUMPDEST PUSH2 0x758 PUSH2 0x753 DUP3 PUSH2 0x4E4 JUMP JUMPDEST PUSH2 0x73E JUMP JUMPDEST DUP3 MSTORE POP POP JUMP JUMPDEST PUSH0 PUSH2 0x769 DUP3 DUP7 PUSH2 0x727 JUMP JUMPDEST PUSH1 0x14 DUP3 ADD SWAP2 POP PUSH2 0x779 DUP3 DUP6 PUSH2 0x747 JUMP JUMPDEST PUSH1 0x20 DUP3 ADD SWAP2 POP PUSH2 0x789 DUP3 DUP5 PUSH2 0x727 JUMP JUMPDEST PUSH1 0x14 DUP3 ADD SWAP2 POP DUP2 SWAP1 POP SWAP5 SWAP4 POP POP POP POP JUMP JUMPDEST PUSH32 0x4E487B7100000000000000000000000000000000000000000000000000000000 PUSH0 MSTORE PUSH1 0x11 PUSH1 0x4 MSTORE PUSH1 0x24 PUSH0 REVERT JUMPDEST PUSH0 PUSH2 0x7D1 DUP3 PUSH2 0x555 JUMP JUMPDEST SWAP2 POP PUSH2 0x7DC DUP4 PUSH2 0x555 JUMP JUMPDEST SWAP3 POP DUP3 DUP3 ADD SWAP1 POP DUP1 DUP3 GT ISZERO PUSH2 0x7F4 JUMPI PUSH2 0x7F3 PUSH2 0x79A JUMP JUMPDEST JUMPDEST SWAP3 SWAP2 POP POP JUMP JUMPDEST PUSH32 0x566F6174696E67207761732073746F7070656400000000000000000000000000 PUSH0 DUP3 ADD MSTORE POP JUMP JUMPDEST PUSH0 PUSH2 0x82E PUSH1 0x13 DUP4 PUSH2 0x681 JUMP JUMPDEST SWAP2 POP PUSH2 0x839 DUP3 PUSH2 0x7FA JUMP JUMPDEST PUSH1 0x20 DUP3 ADD SWAP1 POP SWAP2 SWAP1 POP JUMP JUMPDEST PUSH0 PUSH1 0x20 DUP3 ADD SWAP1 POP DUP2 DUP2 SUB PUSH0 DUP4 ADD MSTORE PUSH2 0x85B DUP2 PUSH2 0x822 JUMP JUMPDEST SWAP1 POP SWAP2 SWAP1 POP JUMP INVALID LOG2 PUSH5 0x6970667358 0x22 SLT KECCAK256 0xE1 0x2F 0xE1 MSTORE8 0xC8 PUSH13 0x3404BF3A04EB466B846E3C3BAA 0xAE 0xAF SWAP7 0xF PUSH5 0x24C5161F2B 0xF PUSH15 0x5D64736F6C63430008190033000000 "
				},
				"gasEstimates": {
					"creation": {
						"codeDepositCost": "440000",
						"executionCost": "infinite",
						"totalCost": "infinite"
					},
					"external": {
						"candidates(uint256)": "4966",
						"commitVoute(bytes32)": "26972",
						"commits(address)": "2824",
						"revealVote(address,bytes32)": "infinite",
						"stopVoating()": "26609",
						"test()": "2491",
						"votes(address)": "2846"
					}
				},
				"methodIdentifiers": {
					"candidates(uint256)": "3477ee2e",
					"commitVoute(bytes32)": "72c9f370",
					"commits(address)": "7b43a8e6",
					"revealVote(address,bytes32)": "1fe262d2",
					"stopVoating()": "3cc95365",
					"test()": "f8a8fd6d",
					"votes(address)": "d8bff5a5"
				}
			},
			"storageLayout": {
				"storage": [
					{
						"astId": 8,
						"contract": "tutor-25-commit-reveal/contracts/CommitReviev.sol:CommitReviev",
						"label": "candidates",
						"offset": 0,
						"slot": "0",
						"type": "t_array(t_address)dyn_storage"
					},
					{
						"astId": 12,
						"contract": "tutor-25-commit-reveal/contracts/CommitReviev.sol:CommitReviev",
						"label": "commits",
						"offset": 0,
						"slot": "1",
						"type": "t_mapping(t_address,t_bytes32)"
					},
					{
						"astId": 16,
						"contract": "tutor-25-commit-reveal/contracts/CommitReviev.sol:CommitReviev",
						"label": "votes",
						"offset": 0,
						"slot": "2",
						"type": "t_mapping(t_address,t_uint256)"
					},
					{
						"astId": 18,
						"contract": "tutor-25-commit-reveal/contracts/CommitReviev.sol:CommitReviev",
						"label": "voatingStoped",
						"offset": 0,
						"slot": "3",
						"type": "t_bool"
					},
					{
						"astId": 20,
						"contract": "tutor-25-commit-reveal/contracts/CommitReviev.sol:CommitReviev",
						"label": "test",
						"offset": 0,
						"slot": "4",
						"type": "t_bytes32"
					}
				],
				"types": {
					"t_address": {
						"encoding": "inplace",
						"label": "address",
						"numberOfBytes": "20"
					},
					"t_array(t_address)dyn_storage": {
						"base": "t_address",
						"encoding": "dynamic_array",
						"label": "address[]",
						"numberOfBytes": "32"
					},
					"t_bool": {
						"encoding": "inplace",
						"label": "bool",
						"numberOfBytes": "1"
					},
					"t_bytes32": {
						"encoding": "inplace",
						"label": "bytes32",
						"numberOfBytes": "32"
					},
					"t_mapping(t_address,t_bytes32)": {
						"encoding": "mapping",
						"key": "t_address",
						"label": "mapping(address => bytes32)",
						"numberOfBytes": "32",
						"value": "t_bytes32"
					},
					"t_mapping(t_address,t_uint256)": {
						"encoding": "mapping",
						"key": "t_address",
						"label": "mapping(address => uint256)",
						"numberOfBytes": "32",
						"value": "t_uint256"
					},
					"t_uint256": {
						"encoding": "inplace",
						"label": "uint256",
						"numberOfBytes": "32"
					}
				}
			},
			"userdoc": {
				"kind": "user",
				"methods": {},
				"version": 1
			}
		}
	}
}